:030000000213598F
:0C135900787FE4F6D8FD7581210213A016
:101B1700543A00593A00DF430007E8041607282D16
:011B270001BC
:0C1B36007F1F7EB07D1CDDFEDEFADFF6B6
:011B42002280
:0C1B43007F777ED87D10DDFEDEFADFF635
:011B4F002273
:081B99007F507EB4DEFEDFFA8E
:011BA1002221
:10117B00E4900000F078017C007D017BFF7A1B7905
:10118B001DFE7F03120623E4900004F0A3F0A3F0EE
:10119B0078077C007D017BFF7A1B7920FE7F08128C
:1011AB000623121A931215447BFF7A1B7917E4FD61
:1011BB00FF1218B37B017A007901E4FD7F07121847
:1011CB00B37BFF7A1B791AE4FD7F0A1218B39000E8
:1011DB008EE0FCA3E0FDA3E0FEA3E0FF9000131262
:1011EB00074DE4FD7F0C12177B78117C007D017B92
:1011FB00017A0079077E007F08120623121662120D
:10120B0017371212C37E00900004EEF0A3EFF0121A
:07121B001222121B3680EBCA
:1019900044008E41E0000044008900000000410046
:0A19A0008D0041008700410088001F
:1019420090008EE0FCA3E0FDA3E0FEA3E0FF900088
:1019520089E0F8A3E0F9A3E0FAA3E0FB12020C602D
:0719620005400312145B2293
:101737001218E990008912074D900089E0FCA3E098
:10174700FDA3E0FEA3E0FF90001312074DE4FD7F29
:101757000212177B12160F78137C007D017B017A2A
:101767000079927E007F081206237D01E4FF1210A4
:04177700D002194241
:0C1B50007F037E747DD6DDFEDEFADFF63A
:011B5C002266
:10191A0090008DE070047F0180027F0090008DEFBF
:10192A00F07006121BF1021737121BF6900087E0BF
:08193A00FFA3E0FD121B0522D2
:0A1B8F001212C3BF010312191A223B
:1014D100E4FC1212C3AC0790008DE06065EC606221
:1014E100ECD39401405CEC94055057121B50EC2452
:1014F100FD601A14603024027048900087E0700586
:10150100740FF08032900087E014F0802A900088F8
:10151100E070047F0180027F00900088EFF0FD9071
:101521000087E0FF8019900087E0B40F04E4F080A9
:1015310006900087E004F0900087E0FFA3E0FD1231
:021541001B0588
:011543002285
:0E0E8B0090000FEFF0900088E06003020F82ED
:100E9900900087E0900010F024F3604324FE607610
:100EA90024036003020F5C90000FE090008E60182D
:100EB900E0FCA3E0FDA3E0FEA3E0FFE4FBFA792058
:100EC9007841120015020F56E0FCA3E0FDA3E0FEF5
:100ED900A3E0FFE4FBFA79207841120011806E90BB
:100EE900000FE090008E6017E0FCA3E0FDA3E0FE98
:100EF900A3E0FFE4FBFA7980783F1200158015E042
:100F0900FCA3E0FDA3E0FEA3E0FFE4FBFA7980780F
:100F19003F120011803790000FE090008E6018E0BA
:100F2900FCA3E0FDA3E0FEA3E0FF7BCD7ACC79CC66
:100F3900783D1200158016E0FCA3E0FDA3E0FEA3B6
:100F4900E0FF7BCD7ACC79CC783D12001190008EF0
:100F590012074D90008EE0FCA3E0FDA3E0FEA3E0A4
:100F6900FF90001312074DE4FD7F0C12177B9000D0
:090F790087E0FFA3E0FD021B0567
:100F8200900087E024F4601804702690000FE0902F
:100F920000976006E0240AF08017E024F6F0801142
:100FA20090000FE09000976005E004F08003E014E9
:100FB200F078137C007D017B017A0079927E007FBC
:100FC200081206237D01E4FF1210D078117C007D07
:100FD200017B017A0079927E007F081206231216A5
:020FE200622289
:10122200EFB4070040030212C2901232F82828736A
:1012320002124702125002125302126C02128B0265
:1012420012AD0212B790008DE070750217370219C5
:101252001A90008DE06069900087E07005740FF0CD
:10126200803E900087E014F0803690008DE0605060
:10127200900088E070047F0180027F00900088EF78
:10128200F0FD900087E0FF801F90008DE0603190BC
:101292000087E0B40F04E4F08006900087E004F0D9
:1012A200900087E0FFA3E0FD021B0590008DE06047
:1012B2000F7F01800890008DE06005E4FF120E8B25
:0112C2002209
:05000600252E3266000A
:101A6800758780759850758920758BF3758DF3D2BD
:061A78008ED2ACD2AF22B9
:081BCF008F993099FDC29922A3
:101ABB00120649FF600C121BCF740129F9E43AFAA4
:031ACB0080EE2288
:1019B50090001A74FFF0A37400F0A37406F0A3124C
:1019C500074D7B017A0079491209037B017A007979
:0419D50049021ABBEE
:081BA2007F8B7E01DEFEDFFAFD
:011BAA002218
:041BE7007F0FDFFE8F
:011BEB0022D7
:041BEC007F14DFFE85
:011BF00022D2
:081BAB007F0D7E01DEFEDFFA72
:011BB300220F
:081BB4007FC77E01DEFEDFFAAF
:011BBC002206
:0C1B5D007F3D7E1C7DDADDFEDEFADFF647
:011B69002259
:1019FC00E4FEC2B3121BA2D2B3FE30B30F0EEED371
:0E1A0C00940540037F0022121BE780EE7F014D
:011A1A0022A9
:081803001219FC121BB47FCC8A
:02180B00AD0727
:10180D00E4900010F0A3F0FBFAC2B3900011E004D5
:10181D00F07006900010E004F0ED1392B3121BABC4
:10182D00D2B3EDC313FD0BBB00010AEB64084A7084
:01183D00D8D2
:01183E002287
:1016F200E4F9900010F0FDFCFBFAC2B30DBD00014D
:101702000CD2B30DBD00010C0DBD00010CA2B3E45F
:1017120033900010F0AF03E0FEA807088002C33345
:10172200D8FC49F9121BEC0BBB00010AEB64084A16
:0417320070C8AF01CB
:011736002290
:0B1B84001218037F4412180B021B5DB7
:081BD7001218037FBE02180B77
:1018E900E4FFFEFBFAF9121B84121BD71216F290C1
:1018F900000FEFF01216F2EFFE90000FE0FDEDFF82
:10190900AC06E412027EE4FBFA7980783D12010606
:0119190022AB
:101A1B0025342E3266002564000000000000000013
:0A1A2B0000000000000000000000B1
:101ACE007580FFC2A6D2A5D2A7E5805480FFC2A71B
:021ADE0070F5A1
:011AE00022E3
:101AE100AE07121ACEC2A6C2A5AF068F80D2A7C278
:021AF100A7222A
:101AF300AE07121ACED2A6C2A5AF068F80D2A7C256
:021B0300A72217
:101B0500ED7004AC078004EF2440FCEC4480FF0238
:021B15001AE1D3
:1018B30090002CEBF0A3EAF0A3E9F0121B059000D3
:1018C3002CE0FBA3E0FAA3E0F912064960179000AD
:1018D3002CA3E475F001120718A9F0FA120649FFC8
:0618E300121AF380D92265
:101A93007F38121AE17F0C121AE17F06121AE17FD6
:041AA30001021AE141
:10177B00900011EFF0A3EDF090001A74FFF0A3743A
:10178B001AF0A3741BF0900013E0FCA3E0FDA3E0A0
:10179B00FEA3E0FF90001D12074D7B017A007962DA
:1017AB00120903900011E0FFA3E0FD7B017A0079A1
:0417BB00620218B3FB
:0C183F0090007BEFF0A3EDF0AF03AE02D1
:10184B0090001A74FFF0A3741AF0A37421F0A3EEA6
:10185B00F0A3EFF07B017A00797D12090390007BF6
:0E186B00E0FFA3E0FD7B017A00797D0218B357
:100FE40090002CEEF0A3EFF0A3EBF0A3EAF0A3E95A
:010FF400F00C
:100FF50090002CE0FEA3E0FF7C037DE81206C3EF22
:101005002430FFA3E0FBA3E0FAA3E0F9A3E0F58217
:10101500758300EF1206A190002CE0FEA3E0FF7C93
:10102500037DE81206C390002CECF0FEA3EDF0FF63
:101035007C007D641206C3EF2430FF900031E0246C
:1010450001FDE433FC90002EE0FBA3E0FAA3E0F9F8
:101055008D828C83EF1206A190002CE0FEA3E0FFA9
:101065007C007D641206C390002CECF0FEA3EDF02D
:10107500FF7C007D0A1206C3EF2430FF900031E0AB
:101085002402FDE433FC90002EE0FBA3E0FAA3E08C
:10109500F98D828C83EF1206A190002CE0FEA3E06F
:1010A500FF7C007D0A1206C3AF05EF2430FF9000D8
:1010B50031E02403FDE433FC90002EE0FBA3E0FACD
:0B10C500A3E0F98D828C83EF0206A1EE
:0C13E5007E007B017A00791B900031F043
:1013F10090002CEEF0A3EFF0A3EBF0A3EAF0A3E949
:01140100F0FA
:1014020090002CE0FEA3E0FF7C007D0A1206C3EFF1
:101412002430FFA3E0FBA3E0FAA3E0F9A3E0F58206
:10142200758300EF1206A190002CE0FEA3E0FF7C82
:10143200007D0A1206C3AF05EF2430FF900031E0B1
:101442002401FDE433FC90002EE0FBA3E0FAA3E0CC
:09145200F98D828C83EF0206A1E2
:0810D000900011EFF0A3EDF018
:1010D800781B7C007D017BFF7A1A79247E007F11C2
:1010E800120623900013E0FEA3E0FF7B017A00794B
:1010F8001BE4900031F0120FE4900015E0FF740437
:101108001213E5900016E0FF74061213E590002311
:10111800742DF0900017E0FF7E007B017A00791BA8
:101128009000317409F01213F1900018E0FF7E006E
:101138007B017A00791B900031740BF01213F19047
:101148000019E0FF7E007B017A00791B9000317462
:101158000DF01213F190001AE0243090002AF0E408
:10116800A3F0900011E0FFA3E0FD7B017A00791B5A
:031178000218B3A7
:051BF1007F0C021AE167
:051BF6007F0F021AE15F
:10187900E4FEC2B400C2B600D2B600EF1392B5EFCF
:10188900C313FFD2B400C2B4000EEEB408EDE4FEF7
:10189900ED1392B5EDC313FDD2B400C2B4000EEE40
:0918A900B408EDC2B600C2B4009F
:0118B2002213
:1016AC00E4FEFDFBC2B600C2B400D2B600EF13924A
:1016BC00B5EFC313FFD2B400C2B4000EEEB408ED04
:1016CC00E4FEA2B5E433FDA806088002C333D8FCBF
:1016DC004BFBD2B400C2B4000EEEB408E5C2B400A9
:0516EC00C2B600AF03CF
:0116F10022D6
:031AA7001216AC68
:101AAA00EF54F0C4540F75F00AA4FEEF540F2EFF42
:011ABA002209
:061A4F00121879A3E0FF6C
:101A5500EF75F00A84C454F0FEEF75F00A84E5F0E2
:031A65004EFF220F
:10160F007F8D121AA7EF24D0FEE43407900092F0DA
:10161F00A3CEF07F89121AA7A3EFF07F871216AC23
:10162F00121AAAA3EFF07F851216AC121AAAA3EF13
:10163F00F07F831216AC121AAAA3EFF07F81121655
:10164F00AC121AAAA3EFF07F8B1216AC121AAAA330
:03165F00EFF02287
:10166200E4FD7F8E121879900011A3E02430FF125E
:101672001A55AD077F8C121A4FAD077F88121A4F89
:10168200AD077F86121A4FAD077F84121A4FAD073E
:101692007F82121A4FAD077F80121A4FAD077F8AE1
:0A16A2001218797D807F8E021879FE
:0D1B28007FA77EAB7D10DDFEDEFADFF6004C
:011B3500228D
:0C1B6A007F777ED87D10DDFEDEFADFF60E
:011B7600224C
:0A19AA0042009E000042009C000075
:03000B000219D9FE
:1019D900C0E0C083C08290009AE0F58CA3E0F58A4C
:1019E900A3E07004A3E064017002B2A0D082D083A6
:0319F900D0E03209
:101544009000A07401F0F589E0FD7C007E017FF439
:101554001206C3C374FF9FFF74FF9EFEE49400FD54
:10156400E49400FCE4FB7A01F9F81217BF90009BA5
:10157400EBF09000A0E0FD7C007E017FF41206C336
:10158400C374FF9FFF74FF9EFEE49400FDE4940087
:10159400FCE4FB7A01F9F81217BF90009AEFF0D23D
:0F15A4008CD2A9D2AFD2A0E490009CF0A3F02289
:091BBD0090009CE4F0A304F02266
:081BDF00E490009CF0A3F02249
:1015B3009000A8EFF0FD7C007E017FF41206C3C308
:1015C30074FF9FFF74FF9EFEE49400FDE49400FC0F
:1015D300E4FB7A01F9F81217BF90009BEBF090003F
:1015E300A8E0FD7C007E017FF41206C3C374FF9F55
:1015F300FF74FF9EFEE49400FDE49400FCE4FB7A98
:0C16030001F9F81217BF90009AEFF022D6
:101A7E00E4FEEEC39F500DE4FCECC39D50030C80BE
:041A8E00F80E80EEE0
:011A92002231
:10145B0090000F12075900000001E47FC8FEFDFC4D
:10146B0090000FE0F8A3E0F9A3E0FAA3E0FBC312AE
:10147B00073C5051C2A1D2A2D2A3C2A47D2C7F2C77
:10148B00121A7ED2A1C2A2D2A3C2A4121A7ED2A1D8
:10149B00C2A2C2A3D2A4121A7EC2A1D2A2C2A3D24A
:1014AB00A4121A7E90000FE0FCA3E0FDA3E0FEA3C4
:1014BB00E02401FFE43EFEE43DFDE43CFC90000F24
:0514CB0012074D8095A1
:0114D00022F9
:0C1B77007F057E047DF8DDFEDEFADFF65F
:011B8300223F
:1012C300E490000FF0A3F0A3F075900FE590640F86
:1012D3007003021356121B77AF90EF24F960232497
:1012E300FC601724FE600B14701E90000F7401F055
:1012F300801690000F7402F0800E90000F7403F0BC
:10130300800690000F7404F07590F0E59064F0602F
:1013130042AF90EF2490602424C0601824E0600C56
:1013230024F0701E9000107401F080169000107469
:1013330002F0800E9000107403F080069000107489
:1013430004F090000FE01425E025E0FFA3E02FFF59
:05135300A3F0227F0061
:011358002272
:091BC600D288D2A8D2AFD2B2221B
:041A35007F017E00AF
:101A3900EF1FAA0670011E4A600BE4FDEDC3940D69
:051A490050EE0D80F7D6
:011A4E002275
:03000300020D21CA
:100D2100C0E0C083C082C0D075D000C002C003C083
:070D310004C005C006C00765
:100D3800E4FCFB900047F0A3F09000A1F07F28FEB0
:100D4800121A3930B203020E769000A57422F09080
:100D580000477403F0A374E8F020B220D390004851
:100D6800E09400900047E094004011121A35A3E087
:100D780024FFF0900047E034FFF080DD20B203024A
:100D88000E769000477401F0A374F4F030B220D3CB
:100D9800900048E09400900047E094004011121A37
:100DA80035A3E024FFF0900047E034FFF080DD7BBE
:100DB800007C00900047E4F0A3743CF020B220D3FC
:100DC800900048E09400900047E094004011121A07
:100DD80035A3E024FFF0900047E034FFF080DD9079
:100DE80000477401F0A374F4F030B233D390004894
:100DF800E09400900047E094004024121A359000D7
:100E0800A1E004F0900048E024FFF0900047E034AF
:100E1800FFF09000A1E0D3941E40CED2A8804F747A
:100E2800A22BF582E43400F583E0C313F09000A10F
:100E3800E0C39408400E74A22BF582E43400F583D5
:100E4800E04480F09000A1E4F00CEC640860030238
:100E58000DBB0BEB64046003020DB99000A5E0F430
:0E0E6800FF9000A4E0FEB507059000A6EEF096
:100E7600D007D006D005D004D003D002D0D0D0827F
:050E8600D083D0E03232
:10000E000202ECE86480F8E933E83360110460F032
:10001E00ED33EC337009E8FCE9FDEAFEEBFF220458
:10002E0060DED3EB9FEA9EE99DE8C2E78CF0C2F753
:10003E0095F0400CE8CCF8E9CDF9EACEFAEBCFFB1F
:10004E001202B785D0F05804700320D5B3E80470BF
:10005E00075002B2D50202F692D5EC0460F7E4CC5A
:10006E00C0E0C398F8603B94186008400DD0E0FBE8
:10007E000202CEE4FBFAC9FC8028E830E406E4C9AB
:10008E00FBE4CAFCE830E305E4C9CACBFCE854073C
:10009E006010F8C3E913F9EA13FAEB13FBEC13FC47
:1000AE00D8F130F52FC3E49CFCEF9BFFEE9AFEEDEA
:1000BE0099FDD0E0FBEF4E4D4C701222DB03020295
:1000CE00F3EC2CFCEF33FFEE33FEED33FDED30E7BA
:1000DE00EB0202CEEF2BFFEE3AFEED39FDD0E0FB48
:1000EE0050130BBB00030202F6ED13FDEE13FEEFF1
:0800FE0013FFEC13FC0202CE1B
:10010600EC4D6011E8497017ED33EC3304600DE4F3
:10011600FCFFFEFD22E933E8330470F80202EC121C
:1001260002B758046009E4CC24815006285009021D
:1001360002F62840030202F3C0E0EB4A7044B9809D
:1001460006D0E0FB0202E2EF4E701CBD8008EBFF1A
:10015600EAFEE9FD80EBE98DF0A4FEE5F00201EF91
:10016600E9CDF9EAFEEBFFEF89F0A4FCE5F0CE89D4
:10017600F0A42EFFE435F0CD89F0A42DFEE435F091
:100186008067EF4E7005BD80D780C3EF8BF0A4ACBF
:10019600F0EE8BF0A42CFCE435F0F8EF8AF0A42CFA
:1001A600E5F038FCE433CB8DF0A42CFCE5F03BF80D
:1001B600EE8AF0A42CFCE5F038F8E433CF89F0A4FD
:1001C6002CFCE5F038CF3400CE89F0A42FFFE5F003
:1001D6003EFEE433C98DF0A42EFEE5F039CD8AF05B
:1001E600A42FFFE5F03EFEE43DFD33D0E0FB5007D3
:1001F6000BBB000F0202F6EC2CFCEF33FFEE33FED6
:06020600ED33FD0202CE03
:10020C0074F8CC6480CCC86480C8F582046043C3A5
:10021C00EB9FF5F0EA9E42F0E99D42F0E89C45F038
:10022C0060305018E5825FFFE582F42B5582FB505D
:10023C00210ABA001D09B90019088016E5825BFB7A
:10024C00E582F42F5582FF50090EBE00050DBD004E
:10025C00010CC3EB9FF5F0EA9E42F0E99D42F0E8F9
:0D026C009C45F06007CC4820E701B3EC2270
:1002790075F020800E75F010800575F0087D007E00
:10028900007F003392D530D50312072EEC3340108E
:10029900EF33FFEE33FEED33FDEC33FCD5F0ED2209
:0E02A900E5F0247EA2D513CC92E7CDCEFF2245
:10089E00E508241AF582E43400F583E00508229079
:1008AE00001730070390001AE475F00112078A0250
:1008BE0006492000E97F2ED2008018EF540F2490B5
:1008CE00D43440D4FF30040BEF24BFB41A005003CD
:1008DE002461FFE50960021509050CE50C7002059F
:1008EE000B30070E900017E475F00112078AEF0225
:1008FE00068F0219697403D2078003E4C207F50854
:10090E009000171207A1E4F509F50BF50CE5096047
:10091E00077F201208E180F5750AFFC201C200C2EE
:10092E0002C203C205C206C2081208ADFF700D3026
:10093E0007057F001208F2AF0CAE0B22B4255FC282
:10094E00D5C2041208ADFF24D0B40A00501A75F0B7
:10095E000A780930D50508B6FF0106C6A426F6208A
:10096E00D5047002D20380D924CFB41A00EF5004FC
:10097E00C2E5D204020BE4D20180C6D20080C0D2FE
:10098E000280BCD2D580BAD20580B47F201208E195
:10099E002002077401B5090040F112089EFF1208EB
:1009AE00E102091BD208D206809512089EFB12089E
:1009BE009EFA12089EF94A4B700679E27A0C7BFF7A
:1009CE0020022EE509602A7E008E827583001206B3
:1009DE006260060EEE650A70F0C2D5EBC0E0EAC0AA
:1009EE00E0E9C0E0EE120C45D0E0F9D0E0FAD0E03C
:1009FE00FB120649FF60AAEBC0E0EAC0E0E9C0E0E6
:100A0E001208E1D0E02401F9D0E03400FAD0E0FB86
:100A1E00E50A0460DCD50AD98087D20280A2120CC6
:100A2E002760F7E50A700104120301A90A600DE5BB
:100A3E000A600914F50A120CCFEF60F3EA30E702F0
:100A4E00F404C3995079EAF4250A0430E701E4046A
:100A5E00F50A800D120C2760C1EA050A250A120359
:100A6E0001EA900046F030E701E4250A04D50A04B5
:100A7E0020050114120C45E4C0E0120CCF90004684
:100A8E00E0601320E70714F01208C9802204F0D0AA
:100A9E00E014C0E07F001208C9E50A60071208C022
:100AAE00150A800B3005031208C0D0E002091BD0D6
:100ABE00E00480C4120C27609EE50A041203019024
:100ACE000046EAF0E50A2005026001042404120C37
:010ADE0045D2
:100ADF0074FF04C0E0120CCF1208C9E50A2005020A
:100AEF0060031208C0D0E0B50AE87F451208D39022
:100AFF000046E07F2B30E7047F2DF404C0E012089E
:100B0F00E1D0E075F00A84C0F01208CAD0E01208F4
:100B1F00CA02091B791080027908C206C208800830
:100B2F00D2D5790A8004790AC2D5E50A047002F594
:100B3F000AE4FAFDFEFF12089EFC7B082001131247
:100B4F00089EFD7B1030000A12089EFE12089EFFC1
:100B5F007B20EC3382D592D55013C3E43000069F2F
:100B6F00FFE49EFEE42001039DFDE49CFCE4CBF832
:100B7F00C201EC700CCFCECDCCE824F8F870F38026
:100B8F0017C3EF33FFEE33FEED33FDEC33FCEB33E6
:100B9F00FB994002FB0FD8E9EB300105F8D0E0C418
:100BAF0048B201C0E00AEC4D4E4F78207B0070C276
:100BBF00EAB50A0040BCC0E0120C47D0F0D0E020EC
:100BCF000104C4C0E0C4B201C0F01208CAD0F0D50D
:100BDF00F0EB02091B1207AA09B8530B2358098916
:100BEF004C0985420B274F0B2F440B2F49099E436E
:100BFF000B35550A62460AC2450A2C470D025009A9
:100C0F008D2D09912E09B42B09952309B2200CEBD8
:100C1F002A094D48000009ACE50AB4FF03750A061E
:100C2F0012089EFC12089EFD12089EFE12089EFFDF
:100C3F0090003F02033E790AA2D520031430050924
:100C4F00B910020404B9080104A2D520060250010C
:100C5F00042002689202B509005034C0E07F2030B2
:100C6F0003197F30A20272067205500F120C9EC23A
:100C7F0002C206C205C2087F30800F300503E9C0EB
:100C8F00E01208E1300503D0E0F9D0E0B509CC302F
:100C9F0005177F30B9100C1208E17F583004077F19
:100CAF00788003B908031208E13002057F2D02088E
:100CBF00E17F202008F87F2B2006F322920280CFBD
:100CCF007F00B40700500B243FF582E43400F58316
:100CDF00E0FF22286E756C6C2900D20112089E303D
:100CEF0001F8C201780930D50108F602094D2D50DF
:100CFF0043495812089E2403B405004001E4900CA8
:100D0F00FD931208D2743A1208D2D2037509040265
:020D1F000B23A4
:1002B700E9D2E7C933E833F892D5EDD2E7CD33EC8D
:0702C70033FC5002B2D52206
:1002CE00EC30E7100FBF000C0EBE00080DBD000491
:1002DE000BEB6014A2D5EB13FCED92E7FD2274FF3D
:1002EE00FCFDFEFF22E480F8A2D574FF13FC7D8096
:0302FE00E480EFAA
:10030100F920E73624F950037907E4F42402FBE5E8
:1003110082158270021583DBF6E024FB501BE96035
:1003210014E4F0E582158270021583E004F0B40A4A
:0D03310008E4F0D9EE7401F00A22C2D522D2
:10033E00ED33EC3392D5FA602AB4FF33EDC2E77B8E
:10034E00FF60067A037963E4227A03796C20D50480
:10035E007A037967224E614E002B494E46002D4995
:10036E004E4600E47A08F0A3DAFC7B00740722C044
:10037E0083C082ECC0E0EDC0E0EEC0E0EFC0E0EA8A
:10038E0075F010A4CAABF075F04DA42BFBE435F05C
:10039E00FCEA2410FAEB34C5FBEC34D9FCEDC2E7D1
:1003AE00FF75F056A4F42411C5F0F434C58FF0A4F3
:1003BE002AE5F03BE43CF020E714120513D0E0FFF1
:1003CE00D0E0FED0E0FDD0E0FC1204468014F40430
:1003DE00120513D0E0FFD0E0FED0E0FDD0E0FC121D
:1003EE000106D082D083E0FAEDD2E7CD33EC332490
:1003FE0082FBE4C3CF33CFCE33CECD33CD33DBF35D
:10040E007B0775F00A846004F0A31B0AE5F0F0A3E5
:10041E008FF0740AA4FFACF08EF0740AA42CFEAC1C
:10042E00F050010C8DF0740AA42CFDE435F0F0A30D
:05043E00DBDE74072263
:100443000202F6EC5D046005E8590470030202EC55
:100453001202B7580460F6EC4860F2EC7004FDFE3B
:10046300FF22C860DB2481C85009C398600250068C
:100473000202F39850CAF582E9294B4A7005AB8210
:100483000202E275F0007C1A7880C3EF9BEE9AEDCE
:1004930099400DC3EF9BFFEE9AFEED99FDE842F004
:1004A300DC23ACF0D0E0FFD0E0FED0E0FDAB822057
:1004B300E7101BEB60BAEC2CFCEF33FFEE33FEEDE1
:1004C30033FD0202CEE803F830E705C0F075F00013
:1004D300EF2FFFEE33FEED33FD40B830E7C280AAC5
:1004E3003F8000004120000042C80000447A000021
:1004F300461C400047C35000497424004B189680A3
:100503004CBEBC205A0E1BCA6753C21C749DC5AE99
:10051300FB60065407601C2323120541EB5438602B
:100523000912052D12053C120106ECF8EDF9EEFA5D
:10053300EFCB22EB12053C80F1543803241C9004CA
:10054300E3FE93FC0EEE93FD0EEE930ECE93FF228D
:1013650002117BE493A3F8E493A34003F68001F212
:1013750008DFF48029E493A3F85407240CC8C33389
:10138500C4540F4420C8834004F456800146F6DF58
:10139500E4800B0102040810204080901990E47E3F
:1013A500019360BCA3FF543F30E509541FFEE4934D
:1013B500A360010ECF54C025E060A840B8E493A314
:1013C500FAE493A3F8E493A3C8C582C8CAC583CA3F
:1013D500F0A3C8C582C8CAC583CADFE9DEE780BEF7
:0119B4000032
:10055300E709F608DFFA8046E709F208DFFA803E8A
:1005630088828C83E709F0A3DFFA8032E309F60877
:10057300DFFA8078E309F208DFFA807088828C83DF
:10058300E309F0A3DFFA806489828A83E0A3F60893
:10059300DFFA805889828A83E0A3F208DFFA804C6D
:1005A30080D280FA80C680D4806980F28033801044
:1005B30080A680EA809A80A880DA80E280CA8033AD
:1005C30089828A83ECFAE493A3C8C582C8CCC58325
:1005D300CCF0A3C8C582C8CCC583CCDFE9DEE780F5
:1005E3000D89828A83E493A3F608DFF9ECFAA9F074
:1005F300EDFB2289828A83ECFAE0A3C8C582C8CCCA
:10060300C583CCF0A3C8C582C8CCC583CCDFEADEE2
:10061300E880DB89828A83E493A3F208DFF980CC44
:1006230088F0EF60010E4E60C388F0ED2402B4043D
:100633000050B9F582EB2402B4040050AF232345E4
:0606430082239005A37361
:10064900BB010689828A83E0225002E722BBFE02AF
:09065900E32289828A83E49322E2
:10066200BB010CE58229F582E5833AF583E022504D
:1006720006E92582F8E622BBFE06E92582F8E22297
:0D068200E58229F582E5833AF583E49322B1
:10068F00BB010689828A83F0225002F722BBFE014A
:02069F00F32244
:1006A100F8BB010DE58229F582E5833AF583E8F08F
:1006B100225006E92582C8F622BBFE05E92582C83B
:0206C100F22223
:1006C300BC000BBE0029EF8DF084FFADF022E4CC1B
:1006D300F875F008EF2FFFEE33FEEC33FCEE9DECE4
:1006E300984005FCEE9DFE0FD5F0E9E4CEFD22ED2A
:1006F300F8F5F0EE8420D21CFEADF075F008EF2F74
:10070300FFED33FD4007985006D5F0F222C398FD64
:050713000FD5F0EA2201
:10071800A3F8E0C5F025F0F0E58215827002158394
:06072800E0C838F0E822F1
:1017BF00C2D5E830E70FB2D5E4C39BFBE49AFAE455
:1017CF0099F9E498F8EC30E717B2D51217F512082B
:1017DF000CE4C39BFBE49AFAE499F9E498F88003CC
:1017EF0012080C30D50DE4C39FFFE49EFEE49DFD6F
:0417FF00E49CFC2248
:0E072E00C3E49FFFE49EFEE49DFDE49CFC22DC
:10073C00EB9FF5F0EA9E42F0E99D42F0E89C45F013
:01074C00228A
:0C074D00ECF0A3EDF0A3EEF0A3EFF0221F
:10075900A8828583F0D083D08212077012077012A5
:100769000770120770E473E493A3C583C5F0C583CA
:10077900C8C582C8F0A3C583C5F0C583C8C582C8EA
:01078900224D
:10078A00F8E0FBA3A3E0F925F0F0E58215827002F8
:07079A001583E0FA38F0229C
:0907A100EBF0A3EAF0A3E9F02259
:1007AA00D083D082F8E4937012740193700DA3A3DE
:1007BA0093F8740193F5828883E4737402936860F2
:0607CA00EFA3A3A380DFF2
:10196900EFB40A07740D121974740A309811A89902
:10197900B8130CC2983098FDA899C298B811F630DE
:0719890099FDC299F59922B6
:1007D00075F008758200EF2FFFEE33FECD33CDCCE0
:1007E00033CCC58233C5829BED9AEC99E582984063
:1007F0000CF582EE9BFEED9AFDEC99FC0FD5F0D640
:10080000E4CEFBE4CDFAE4CCF9A88222B800C1B969
:100810000059BA002DEC8BF084CFCECDFCE5F0CBA7
:10082000F97818EF2FFFEE33FEED33FDEC33FCEBE0
:1008300033FB10D703994004EB99FB0FD8E5E4F99B
:10084000FA227818EF2FFFEE33FEED33FDEC33FC88
:10085000C933C910D7059BE99A4007EC9BFCE99A7C
:10086000F90FD8E0E4C9FAE4CCFB2275F010EF2FC1
:10087000FFEE33FEED33FDCC33CCC833C810D707C1
:100880009BEC9AE899400AED9BFDEC9AFCE899F8FC
:0E0890000FD5F0DAE4CDFBE4CCFAE4C8F9228F
:00000001FF
